S0160000542D426972642D50726F6A6563742E7372656308
S113000045C0000060C000005EC000005CC000008D
S11300105AC0000058C0000056C0000054C0000080
S113002052C0000050C000004EC000004CC0000090
S11300304AC0000048C0000046C0000044C00000A0
S113004097C0000040C000003EC000003CC000005B
S11300503AC0000038C0000036C0000034C00000C0
S113006032C0000030C000002EC000002CC00000D0
S11300702AC0000028C0000026C0000024C00000E0
S113008022C0000020C000001EC0000011241FBEBA
S1130090CFEFD0E1DEBFCDBF11E0A0E0B1E0E4E2FC
S11300A0F8E000E00BBF02C007900D92A230B10748
S11300B0D9F721E0A2E0B1E001C01D92A332B2075A
S11300C0E1F7DAD1ADC39CCF80EF87BB81BB10923F
S11300D0640088E884BB8CE082B98FEF8ABB82E03D
S11300E083BF81E087BF78940895843048F46A30F0
S11300F038F420E1829FC0011124862B80688BBBD9
S11301000895CF93DF93EC012AE030E0B90161D385
S1130110EEE1F1E08083CB01B9015BD38183CE01B1
S113012064E670E056D3CB01B90153D38283CE0188
S113013068EE73E04ED3CB01B9014BD38383809136
S11301401C0190911D01019683709078992324F4E9
S113015001978C6F9F6F019690931D0180931C01F2
S1130160FC01E25EFE4F6081C0DFDF91CF91089514
S11301701F920F920FB60F9211240BB60F92CF92CB
S1130180DF92EF92FF922F933F934F935F936F937E
S11301907F938F939F93AF93BF93EF93FF9320E04D
S11301A030E040E85FE360911201709113018091A7
S11301B01401909115018BD16B017C0160931201A4
S11301C070931301809314019093150120E030E0A3
S11301D040E85FE360910A0170910B0180910C018A
S11301E090910D0174D160930A0170930B01809377
S11301F00C0190930D0120E030E040E85FE3609152
S113020002017091030180910401909105015FD175
S1130210609302017093030180930401909305019C
S11302202091160130911701409118015091190144
S1130230C701B601A6D21816DCF485B38F7785BB47
S11302406091120170911301809114019091150134
S113025020E030E048EC52E494D2181664F4109292
S1130260120110921301109214011092150103C08F
S113027085B3806885BB60910A0170910B01809100
S11302800C0190910D0120910E0130910F014091CC
S113029010015091110175D21816DCF483B18B7FD3
S11302A083B960910A0170910B0180910C019091C6
S11302B00D0120E030E048EC52E463D2181664F4F7
S11302C010920A0110920B0110920C0110920D0170
S11302D003C083B1846083B960910201709103010A
S11302E0809104019091050120910601309107014C
S11302F0409108015091090144D21816DCF483B1ED
S1130300877F83B960910201709103018091040198
S11303109091050120E030E048EC52E432D2181606
S113032064F41092020110920301109204011092DD
S1130330050103C083B1886083B980911A0190914B
S11303401B01DFDE809122019FEF980F9093220121
S1130350811110C080911A0190911B010196909314
S11303601B0180931A018F30974221F410921B01D4
S113037010921A01FF91EF91BF91AF919F918F91CC
S11303807F916F915F914F913F912F91FF90EF90EB
S1130390DF90CF900F900BBE0F900FBE0F901F9069
S11303A018954F925F926F927F928F929F92AF9225
S11303B0BF92CF92DF92EF92FF920F931F93CF934E
S11303C0DF9300D000D0CDB7DEB7CC2009F43FC016
S11303D0E982FA820B831C8349015A012B013C01F7
S11303E06C2D70E080E090E03ED19B01AC0160E0B8
S11303F070E088EC92E4CFD06B017C019B01AC01EE
S1130400C301B201C8D060931601709317018093A1
S1130410180190931901A7019601C501B401BBD03D
S113042060930E0170930F0180931001909311015A
S1130430A701960169817A818B819C81ACD06093FC
S113044006017093070180930801909309010F90AE
S11304500F900F900F90DF91CF911F910F91FF900C
S1130460EF90DF90CF90BF90AF909F908F907F9050
S11304706F905F904F90089527DEC0900001E12CAB
S1130480F12C8701A801970160E070E088EC92E408
S113049088DF80910001815080930001811103C0A5
S11304A084E680930001C0900001E12CF12C8701C7
S11304B0A801970160E070E088EC92E472DF8FE1BC
S11304C09EE40197F1F700C00000E3CF5058BB272A
S11304D0AA270ED01CC10DD130F012D120F031F476
S11304E09F3F11F41EF402C10EF4E095E7FBF8C03F
S11304F0E92F1ED180F3BA176207730784079507A3
S113050018F071F49EF536C10EF4E0950B2EBA2F57
S1130510A02D0B01B90190010C01CA01A001112405
S1130520FF27591B99F0593F50F4503E68F11A16B1
S1130530F040A22F232F342F4427585FF3CF469542
S113054037952795A795F0405395C9F77EF41F1664
S1130550BA0B620B730B840BBAF09150A1F0FF0F2E
S1130560BB1F661F771F881FC2F70EC0BA0F621F1A
S1130570731F841F48F4879577956795B795F7950A
S11305809E3F08F0B3CF9395880F08F09927EE0F9C
S11305909795879508950CD0BAC0B2D040F0A9D0F1
S11305A030F021F45F3F19F09BC05111E4C09EC0AC
S11305B0BFD098F39923C9F35523B1F3951B550B79
S11305C0BB27AA2762177307840738F09F5F5F4F22
S11305D0220F331F441FAA1FA9F333D00E2E3AF063
S11305E0E0E830D091505040E695001CCAF729D07D
S11305F0FE2F27D0660F771F881FBB1F26173707CC
S11306004807AB07B0E809F0BB0B802DBF01FF27FB
S113061093585F4F2AF09E3F510568F061C0ABC00C
S11306205F3FECF3983EDCF3869577956795B79535
S1130630F7959F5FC9F7880F911D9695879597F950
S11306400895E1E0660F771F881FBB1F62177307C9
S11306508407BA0720F0621B730B840BBA0BEE1FDE
S113066088F7E0950895E89409C097FB3EF49095C7
S11306708095709561957F4F8F4F9F4F9923A9F077
S1130680F92F96E9BB279395F69587957795679506
S1130690B795F111F8CFFAF4BB0F11F460FF1BC04A
S11306A06F5F7F4F8F4F9F4F16C0882311F096E9DD
S11306B011C0772321F09EE8872F762F05C066238B
S11306C071F096E8862F70E060E02AF09A95660F44
S11306D0771F881FDAF7880F9695879597F90895FD
S11306E097F99F6780E870E060E008959FEF80ECE1
S11306F0089500240A941616170618060906089584
S113070000240A9412161306140605060895092EE9
S11307100394000C11F4882352F0BB0F40F4BF2B58
S113072011F460FF04C06F5F7F4F8F4F9F4F089598
S113073057FD9058440F551F59F05F3F71F047958E
S1130740880F97FB991F61F09F3F79F08795089573
S1130750121613061406551FF2CF4695F1DF08C092
S1130760161617061806991FF1CF869571056105AF
S113077008940895E894BB2766277727CB0197F957
S1130780089503D008F48FEF0895990F0008550FCA
S1130790AA0BE0E8FEEF16161706E807F907C0F003
S11307A012161306E407F50798F0621B730B840B0B
S11307B0950B39F40A2661F0232B242B252B21F4E5
S11307C008950A2609F4A140A6958FEF811D811D85
S11307D0089597FB072E16F4009406D077FD08D0F1
S11307E00BD007FC05D03EF4909581959F4F08955A
S11307F0709561957F4F0895AA1BBB1B51E107C0FB
S1130800AA1FBB1FA617B70710F0A61BB70B881F9C
S1130810991F5A95A9F780959095BC01CD0108952B
S1070820F894FFCF76
S105082432009C
S9030000FC
