S0160000542D426972642D50726F6A6563742E7372656308
S113000045C0000060C000005EC000005CC000008D
S11300105AC0000058C0000056C0000054C0000080
S113002052C0000050C000004EC000004CC0000090
S11300304AC0000048C0000046C0000044C00000A0
S113004043C0000040C000003EC000003CC00000AF
S11300503AC0000038C0000036C0000034C00000C0
S113006032C0000030C000002EC000002CC00000D0
S11300702AC0000028C0000026C0000024C00000E0
S113008022C0000020C000001EC0000011241FBEBA
S1130090CFEFD0E1DEBFCDBF11E0A0E0B1E0EAECEC
S11300A0F1E000E00BBF02C007900D92AC30B10745
S11300B0D9F721E0ACE0B1E001C01D92A031B20754
S11300C0E1F757D080C09CCF1F920F920FB60F92CA
S11300D011242F938F939F9380910F019FEF980F7B
S11300E090930F01811110C080910C0190910D012A
S11300F0019690930D0180930C018F30974221F467
S113010010920D0110920C019F918F912F910F90DD
S11301100FBE0F901F90189587B38F7087BB87B35E
S1130120806F87BB81B38F7081BB81B3806F81BBCC
S1130130E4E6F0E08081807E80838081808382B1E8
S1130140837F82B982B18C6082B984B38F7784BB98
S113015084B3806584BB8FEF8ABB84B3807884BB0F
S113016084B3886784BB8AE483BF81E087BF7894C3
S11301700895D2DF07D080930E018A30D8F78068C3
S11301808BBBF8CF38E01BC085B3807885BB85B3C3
S1130190832B85BB8FE097E20197F1F700C0000045
S11301A023B32F7780E008C0E82FF0E0E050FF4F42
S11301B09081291739F08F5F8C30B0F3330F3134CD
S10D01C018F38CE00895F894FFCFC3
S10F01CA450E0D0B161513262523464385
S9030000FC
