:1000000045C0000060C000005EC000005CC0000091
:100010005AC0000058C0000056C0000054C0000084
:1000200052C0000050C000004EC000004CC0000094
:100030004AC0000048C0000046C0000044C00000A4
:10004000A5C0000040C000003EC000003CC0000051
:100050003AC0000038C0000036C0000034C00000C4
:1000600032C0000030C000002EC000002CC00000D4
:100070002AC0000028C0000026C0000024C00000E4
:1000800022C0000020C000001EC0000011241FBEBE
:10009000CFEFD0E1DEBFCDBF11E0A0E0B1E0E2E5FF
:1000A000F2E000E00BBF02C007900D92A230B10752
:1000B000D9F721E0A2E0B1E001C01D92A930B2075A
:1000C000E1F71FD0C4C09CCF80EF87BB81BB1092EB
:1000D000640088E884BB8CE082B98FEF8ABB83E040
:1000E00083BF81E087BF78940895843048F46A30F4
:1000F00038F420E1829FC0011124862B80688BBBDD
:100100000895E2DF61E082E0F0DFFFCFCF93DF937D
:10011000EC012AE030E0B90173D0E4E0F1E0808343
:10012000CB01B9016DD08183CE0164E670E068D067
:10013000CB01B90165D08283CE0168EE73E060D057
:10014000CB01B9015DD083838091020190910301BD
:10015000019683709078992324F401978C6F9F6F98
:1001600001969093030180930201FC01EC5FFE4F26
:100170006081BBDFDF91CF910895982F907F92BB74
:1001800020E1829FC001112488BB08951F920F9225
:100190000FB60F9211240BB60F922F933F934F93EC
:1001A0005F936F937F938F939F93AF93BF93EF93DF
:1001B000FF9382ED94E0AADF809108019FEF980FF2
:1001C00090930801811109C080910001D6DF9091C0
:1001D000000181E0892780930001FF91EF91BF9199
:1001E000AF919F918F917F916F915F914F913F91CF
:1001F0002F910F900BBE0F900FBE0F901F90189570
:1002000097FB072E16F4009406D077FD08D00BD08C
:1002100007FC05D03EF4909581959F4F0895709509
:1002200061957F4F0895AA1BBB1B51E107C0AA1F10
:10023000BB1FA617B70710F0A61BB70B881F991F87
:100240005A95A9F780959095BC01CD010895F89431
:02025000FFCFDE
:020252000100A9
:00000001FF
