:1000000045C0000060C000005EC000005CC0000091
:100010005AC0000058C0000056C0000054C0000084
:1000200052C0000050C000004EC000004CC0000094
:100030004AC0000048C0000046C0000044C00000A4
:10004000FEC0000040C000003EC000003CC00000F8
:100050003AC0000038C0000036C0000034C00000C4
:1000600032C0000030C000002EC000002CC00000D4
:100070002AC0000028C0000026C0000024C00000E4
:1000800022C0000020C000001EC0000011241FBEBE
:10009000CFEFD0E1DEBFCDBF11E0A0E0B1E0E4E3FF
:1000A000F9E000E00BBF02C007900D92AA32B10741
:1000B000D9F721E0AAE2B1E001C01D92A834B2074D
:1000C000E1F729D135C49CCF82B18F7782B9E2E6BE
:1000D000F0E080818D7F8083808184608083E2E690
:1000E000F0E080818860808385E08A95F1F70000E8
:1000F00081B180789081977F908395E09A95F1F710
:10010000000090819860908395E09A95F1F7000047
:100110009081977F908395E09A95F1F70000811187
:10012000DECF80818B7F808382B1806882B9089521
:10013000E2E6F0E08081877F80838FE99FE001978E
:10014000F1F700C000008081886080838FE097E233
:100150000197F1F700C000008081877F80838FE6E0
:1001600097E10197F1F700C000000895E2E6F0E0A2
:1001700090819D7F908390819B7F908393B1907FAE
:1001800093B993B1807F982B93B9D2DF83B18F70ED
:1001900083B983B183B9CCCF089582B1806F82B91E
:1001A000E1E6F0E080818E608083E2E6F0E080812D
:1001B0008D7F808380818D7F808380E283B9B8DFEB
:1001C000B7DFB6DF88E2D2DF88E2D0DF88E2CEDFB9
:1001D00082E0CCDF81E0CADF8CE0C8CF0895CF9306
:1001E000C82F72DFE2E6F0E0808182608083808148
:1001F0008B7F80838081877F808383B18F7083B979
:1002000083B19C2F907F892B83B992DF83B18F704C
:1002100083B923B130E1C39FC0011124822B83B97C
:1002200087DFCF910895CF93DF93EC0102C0D7DF32
:10023000219688818111FBCFDF91CF9108951F9284
:100240000F920FB60F9211240BB60F922F933F937C
:100250004F935F936F937F938F939F93AF93BF93CE
:10026000EF93FF9306D1809147019FEF980F9093F2
:100270004701811110C080912A0190912B010196B4
:1002800090932B0180932A018F30974221F4109292
:100290002B0110922A01FF91EF91BF91AF919F9195
:1002A0008F917F916F915F914F913F912F910F901F
:1002B0000BBE0F900FBE0F901F90189587B38F70D5
:1002C00087BB87B3806F87BB81B38F7081BB81B3DE
:1002D000806F81BBE4E6F0E08081807E8083808156
:1002E000808382B1837F82B982B18C6082B984B30A
:1002F0008F7784BB84B3806584BB8FEF8ABB84B364
:10030000807884BB84B3886784BB8AE483BF81E040
:1003100087BF78940895D2DF40DF81E027DF81E056
:1003200091E081DF80EC22DF80E191E07CDF0F2E25
:10033000F4E6CF2EF02DE12CF12C08EC12E420E0B5
:1003400030E0A901CA01B90129D007D08093440146
:100350008A30D8F780688BBBF8CF38E01BC085B3F4
:10036000807885BB85B3832B85BB8FE097E20197AF
:10037000F1F700C0000023B32F7780E008C0E82F1A
:10038000F0E0E35EFE4F9081291739F08F5F8C30EB
:10039000B0F3330F313418F38CE008954F925F922D
:1003A0006F927F928F929F92AF92BF92CF92DF9285
:1003B000EF92FF920F931F93CF93DF9300D000D063
:1003C000CDB7DEB7CC2009F43FC0E982FA820B83B7
:1003D0001C8349015A012B013C016C2D70E080E027
:1003E00090E0F0D19B01AC0160E070E088EC92E419
:1003F00081D16B017C019B01AC01C301B2017AD1B7
:1004000060934001709341018093420190934301B6
:10041000A7019601C501B4016DD1609338017093B5
:10042000390180933A0190933B01A70196016981BC
:100430007A818B819C815ED1609330017093310110
:1004400080933201909333010F900F900F900F9093
:10045000DF91CF911F910F91FF90EF90DF90CF90A0
:10046000BF90AF909F908F907F906F905F904F90D4
:100470000895CF92DF92EF92FF928091000188233E
:1004800009F4CEC020E030E040E85FE360913C0139
:1004900070913D0180913E0190913F01C7D06B0169
:1004A0007C0160933C0170933D0180933E019093E9
:1004B0003F0120E030E040E85FE36091340170915B
:1004C00035018091360190913701B0D060933401AD
:1004D00070933501809336019093370120E030E02E
:1004E00040E85FE360912C0170912D0180912E0115
:1004F00090912F019BD060932C0170932D018093DC
:100500002E0190932F0120914001309141014091A3
:10051000420150914301C701B601E2D18823DCF0CA
:1005200085B38F7785BB60913C0170913D018091CF
:100530003E0190913F0120E030E048EC52E4D0D100
:10054000882364F010923C0110923D0110923E010C
:1005500010923F0103C085B3806885BB6091340170
:1005600070913501809136019091370120913801C9
:100570003091390140913A0150913B01B1D188232A
:10058000DCF083B18B7F83B96091340170913501C8
:10059000809136019091370120E030E048EC52E440
:1005A0009FD1882364F0109234011092350110928B
:1005B00036011092370103C083B1846083B9609122
:1005C0002C0170912D0180912E0190912F0120918D
:1005D000300130913101409132015091330180D18D
:1005E0008823DCF083B1877F83B960912C017091FF
:1005F0002D0180912E0190912F0120E030E048ECF8
:1006000052E46ED1882364F010922C0110922D01D7
:1006100010922E0110922F0103C083B1886083B91C
:10062000FF90EF90DF90CF9008955058BB27AA27F6
:100630000ED01CC10DD130F012D120F031F49F3F0B
:1006400011F41EF402C10EF4E095E7FBF8C0E92FA7
:100650001ED180F3BA17620773078407950718F055
:1006600071F49EF536C10EF4E0950B2EBA2FA02D35
:100670000B01B90190010C01CA01A0011124FF274F
:10068000591B99F0593F50F4503E68F11A16F0404A
:10069000A22F232F342F4427585FF3CF4695379549
:1006A0002795A795F0405395C9F77EF41F16BA0B0E
:1006B000620B730B840BBAF09150A1F0FF0FBB1FBC
:1006C000661F771F881FC2F70EC0BA0F621F731F05
:1006D000841F48F4879577956795B795F7959E3F62
:1006E00008F0B3CF9395880F08F09927EE0F9795F0
:1006F000879508950CD0BAC0B2D040F0A9D030F0A0
:1007000021F45F3F19F09BC05111E4C09EC0BFD0DF
:1007100098F39923C9F35523B1F3951B550BBB27C8
:10072000AA2762177307840738F09F5F5F4F220F75
:10073000331F441FAA1FA9F333D00E2E3AF0E0E86E
:1007400030D091505040E695001CCAF729D0FE2FBA
:1007500027D0660F771F881FBB1F2617370748074C
:10076000AB07B0E809F0BB0B802DBF01FF27935802
:100770005F4F2AF09E3F510568F061C0ABC05F3FFC
:10078000ECF3983EDCF3869577956795B795F795EA
:100790009F5FC9F7880F911D9695879597F90895E2
:1007A000E1E0660F771F881FBB1F6217730784077E
:1007B000BA0720F0621B730B840BBA0BEE1F88F78D
:1007C000E0950895E89409C097FB3EF490958095D4
:1007D000709561957F4F8F4F9F4F9923A9F0F92F07
:1007E00096E9BB279395F695879577956795B79585
:1007F000F111F8CFFAF4BB0F11F460FF1BC06F5F6B
:100800007F4F8F4F9F4F16C0882311F096E911C07C
:10081000772321F09EE8872F762F05C0662371F09D
:1008200096E8862F70E060E02AF09A95660F771FB1
:10083000881FDAF7880F9695879597F9089597F9A5
:100840009F6780E870E060E008959FEF80EC089576
:1008500000240A941616170618060906089500249F
:100860000A9412161306140605060895092E039419
:10087000000C11F4882352F0BB0F40F4BF2B11F48D
:1008800060FF04C06F5F7F4F8F4F9F4F089557FDEC
:100890009058440F551F59F05F3F71F04795880FEE
:1008A00097FB991F61F09F3F79F087950895121685
:1008B00013061406551FF2CF4695F1DF08C0161631
:1008C00017061806991FF1CF8695710561050894E2
:1008D0000895E894BB2766277727CB0197F90895F9
:1008E00003D008F48FEF0895990F0008550FAA0B55
:1008F000E0E8FEEF16161706E807F907C0F0121633
:100900001306E407F50798F0621B730B840B950B35
:1009100039F40A2661F0232B242B252B21F408958A
:100920000A2609F4A140A6958FEF811D811D089527
:04093000F894FFCF69
:1009340001566963686E616C204D617274696E0062
:1009440048656C6C6F20576F726C642100450E0D06
:0A0954000B16151326252346430059
:00000001FF
