:1000000045C0000060C000005EC000005CC0000091
:100010005AC0000058C0000056C0000054C0000084
:1000200052C0000050C000004EC000004CC0000094
:100030004AC0000048C0000046C0000044C00000A4
:10004000F3C0000040C000003EC000003CC0000003
:100050003AC0000038C0000036C0000034C00000C4
:1000600032C0000030C000002EC000002CC00000D4
:100070002AC0000028C0000026C0000024C00000E4
:1000800022C0000020C000001EC0000011241FBEBE
:10009000CFEFD0E1DEBFCDBF11E0A0E0B1E0E0ECFA
:1000A000F4E000E00BBF02C007900D92A630B1074C
:1000B000D9F721E0A6E0B1E001C01D92A730B20758
:1000C000E1F74AD0FBC19CCF8FEC97E00197F1F7A5
:1000D00000C000000895CF93DF9302C0F5DFCE018A
:1000E000EC01219718161906CCF3DF91CF910895F2
:1000F000CF92DF92EF92FF9228E825BB35D16B01BA
:100100007C01CB01E8DF15BA84E083B9C601E3DFE7
:1001100013B888E083B9C601DEDF13B8FF90EF9013
:10012000DF90CF90089580EF87BB81BB1092640071
:1001300088E884BB8CE082B90895982F907F92BBA9
:1001400020E1829FC001112488BB089584E083BF11
:1001500081E087BF78940895E6DFF8DF8FEF8ABBF0
:1001600081E88BBB80916300823041F520E030E074
:1001700048E453E460910001709101018091020113
:100180009091030189D060930001709301018093E5
:1001900002019093030120E030E44CE156E48AD15F
:1001A000181664F480E090E4ACE1B6E480930001BA
:1001B00090930101A0930201B09303018091630029
:1001C000813041F520E030E048E453E460910001E3
:1001D0007091010180910201909103015CD06093C4
:1001E000000170930101809302019093030120E0CC
:1001F00030E048E452E4B4D0882364F480E090E036
:10020000A8E4B2E48093000190930101A09302015D
:10021000B09303016091000170910101809102018E
:100220009091030165DF9ECF1F920F920FB60F9240
:1002300011240BB60F922F933F934F935F936F93BD
:100240007F938F939F93AF93BF93EF93FF9380918F
:1002500006019FEF980F90930601811109C08091CC
:1002600004016BDF9091040181E0892780930401F0
:10027000FF91EF91BF91AF919F918F917F916F917E
:100280005F914F913F912F910F900BBE0F900FBE3A
:100290000F901F9018955058BB27AA270ED0D0C09A
:1002A000C1D030F0C6D020F031F49F3F11F41EF4DD
:1002B000B6C00EF4E095E7FBACC0E92FD2D080F3D6
:1002C000BA17620773078407950718F071F49EF553
:1002D000EAC00EF4E0950B2EBA2FA02D0B01B90148
:1002E00090010C01CA01A0011124FF27591B99F0AC
:1002F000593F50F4503E68F11A16F040A22F232FB8
:10030000342F4427585FF3CF469537952795A79507
:10031000F0405395C9F77EF41F16BA0B620B730BAE
:10032000840BBAF09150A1F0FF0FBB1F661F771F1F
:10033000881FC2F70EC0BA0F621F731F841F48F4D4
:10034000879577956795B795F7959E3F08F0B3CF5A
:100350009395880F08F09927EE0F97958795089544
:1003600034D008F481E0089504D06894B1119CC0A1
:1003700008957FD088F09F5790F0B92F9927B751F3
:10038000A0F0D1F0660F771F881F991F1AF0BA9559
:10039000C9F712C0B13081F086D0B1E0089583C0B2
:1003A000672F782F8827B85F39F0B93FCCF386954F
:1003B00077956795B395D9F73EF4909580957095AC
:1003C00061957F4F8F4F9F4F0895990F0008550FEC
:1003D000AA0BE0E8FEEF16161706E807F907C0F0CB
:1003E00012161306E407F50798F0621B730B840BD3
:1003F000950B39F40A2661F0232B242B252B21F4AD
:1004000008950A2609F4A140A6958FEF811D811D4C
:10041000089597F99F6780E870E060E008959FEF86
:1004200080EC089500240A9416161706180609068B
:10043000089500240A94121613061406050608955A
:10044000092E0394000C11F4882352F0BB0F40F4E2
:10045000BF2B11F460FF04C06F5F7F4F8F4F9F4F22
:10046000089557FD9058440F551F59F05F3F71F0A4
:100470004795880F97FB991F61F09F3F79F087950B
:100480000895121613061406551FF2CF4695F1DF94
:1004900008C0161617061806991FF1CF8695710524
:1004A000610508940895E894BB2766277727CB0158
:1004B00097F908958ADF08F48FEF0895F894FFCF35
:0604C00000007A44010077
:00000001FF
