:1000000045C0000060C000005EC000005CC0000091
:100010005AC0000058C0000056C0000054C0000084
:1000200052C0000050C000004EC000004CC0000094
:100030004AC0000048C0000046C0000044C00000A4
:10004000CEC0000040C000003EC000003CC0000028
:100050003AC0000038C0000036C0000034C00000C4
:1000600032C0000030C000002EC000002CC00000D4
:100070002AC0000028C0000026C0000024C00000E4
:1000800022C0000020C000001EC0000011241FBEBE
:10009000CFEFD0E1DEBFCDBF11E0A0E0B1E0EEE0F8
:1000A000F4E000E00BBF02C007900D92A230B10750
:1000B000D9F721E0A2E0B1E001C01D92AF30B20754
:1000C000E1F7E2D0A2C19CCF82B18F7782B9E2E69C
:1000D000F0E080818D7F8083808184608083E2E690
:1000E000F0E080818860808382E08A95F1F700C02B
:1000F00081B180789081977F908392E09A95F1F713
:1001000000C090819860908392E09A95F1F700C0CA
:100110009081977F908392E09A95F1F700C08111CA
:10012000DECF80818B7F808382B1806882B9089521
:10013000E2E6F0E080818860808385E08A95F1F7CF
:1001400000008081877F808385E08A95F1F7000039
:100150000895CF93C82FB8DFE2E6F0E080818D7F6D
:10016000808380818B7F80838081877F808383B140
:100170008F7083B983B19C2F907F892B83B9D8DF8F
:1001800083B18F7083B923B130E1C39FC0011124C3
:10019000822B83B9CDDFCF91089582B1806F82B970
:1001A000E1E6F0E080818E608083E2E6F0E080812D
:1001B0008D7F808380818D7F808380E283B9B8DFEB
:1001C000B7DFB6DF88E2C5DF88E2C3DF88E2C1DFE0
:1001D00082E0BFDF81E0BDDF8CE0BBCF08951F92DE
:1001E0000F920FB60F9211240BB60F922F933F93DD
:1001F0004F935F936F937F938F939F93AF93BF932F
:10020000EF93FF9346D0FF91EF91BF91AF919F91F4
:100210008F917F916F915F914F913F912F910F90AF
:100220000BBE0F900FBE0F901F90189587B38F7065
:1002300087BB87B3806F87BB81B38F7081BB81B36E
:10024000806F81BBE4E6F0E08081807E80838081E6
:10025000808382B1837F82B982B18C6082B984B39A
:100260008F7784BB84B3806584BB8FEF8ABB84B3F4
:10027000807884BB84B3886784BB81E083BF87B701
:10028000816087BF78940895D1DF87DF81E061DFE7
:10029000FFCF80910001882309F451C080910201B1
:1002A0008F5F809302018F3F11F4109202016091E1
:1002B000020170E080E090E049D020910B01309184
:1002C0000C0140910D0150910E013AD0181624F006
:1002D00085B3806885BB03C085B38F7785BB60918C
:1002E000020170E080E090E031D020910701309170
:1002F00008014091090150910A0122D0181624F0FA
:1003000083B1846083B903C083B18B7F83B960916B
:10031000020170E080E090E019D02091030130915B
:10032000040140910501509106010AD0181624F0ED
:1003300083B1886083B9089583B1877F83B90895B5
:1003400040D008F481E00895E89409C097FB3EF49A
:1003500090958095709561957F4F8F4F9F4F992312
:10036000A9F0F92F96E9BB279395F6958795779590
:100370006795B795F111F8CFFAF4BB0F11F460FF50
:100380001BC06F5F7F4F8F4F9F4F16C0882311F0A8
:1003900096E911C0772321F09EE8872F762F05C0BC
:1003A000662371F096E8862F70E060E02AF09A9557
:1003B000660F771F881FDAF7880F9695879597F94C
:1003C0000895990F0008550FAA0BE0E8FEEF1616E6
:1003D0001706E807F907C0F012161306E407F50739
:1003E00098F0621B730B840B950B39F40A2661F0AD
:1003F000232B242B252B21F408950A2609F4A14050
:0E040000A6958FEF811D811D0895F894FFCF02
:02040E000100EB
:00000001FF
