:1000000045C0000058C0000056C0000054C00000A9
:1000100052C0000050C000004EC000004CC00000A4
:100020004AC0000048C0000046C0000044C00000B4
:1000300042C0000040C000003EC000003CC00000C4
:100040003AC0000038C0000036C0000034C00000D4
:1000500032C0000030C000002EC000002CC00000E4
:100060002AC0000028C0000026C0000024C00000F4
:1000700022C0000020C000001EC000001CC0000004
:100080001AC0000018C0000016C0000011241FBED6
:10009000CFEFD0E1DEBFCDBF11E0A0E0B1E0E2EAFA
:1000A000F1E000E00BBF02C007900D92A630B1074F
:1000B000D9F73FD074C0A4CF8FEC97E00197F1F748
:1000C00000C000000895CF93DF9302C0F5DFCE019A
:1000D000EC01219718161906CCF3DF91CF91089502
:1000E00080EF87BB81BB10926400089582BB82952C
:1000F000807F88BB089580910301803821F481E0DE
:100100008093030103C0880F809303018091020153
:10011000813021F480E88093020103C086958093AA
:1001200002019091030180910201892B80930401C7
:100130000895D6DF80916300823091F480910001B0
:1001400090910101C2969093010180930001813149
:10015000974234F080E197E290930101809300018F
:1001600080916300813089F48091000190910101B8
:10017000C2979093010180930001C29734F482E307
:1001800090E0909301018093000180910401AEDF23
:10019000809100019091010196DFADDFCBCFF89403
:0201A000FFCF8F
:0601A200F40180010100E0
:00000001FF
