:1000000045C0000060C000005EC000005CC0000091
:100010005AC0000058C0000056C0000054C0000084
:1000200052C0000050C000004EC000004CC0000094
:100030004AC0000048C0000046C0000044C00000A4
:1000400097C0000040C000003EC000003CC000005F
:100050003AC0000038C0000036C0000034C00000C4
:1000600032C0000030C000002EC000002CC00000D4
:100070002AC0000028C0000026C0000024C00000E4
:1000800022C0000020C000001EC0000011241FBEBE
:10009000CFEFD0E1DEBFCDBF11E0A0E0B1E0E0EDF9
:1000A000F8E000E00BBF02C007900D92A430B1074A
:1000B000D9F721E0A4E0B1E001C01D92A732B20758
:1000C000E1F7DFD103C49CCF80EF87BB81BB1092E7
:1000D000640088E884BB8CE082B98FEF8ABB8AE435
:1000E00083BF81E087BF78940895843048F46A30F4
:1000F00038F420E1829FC0011124862B80688BBBDD
:100100000895CF93DF93EC012AE030E0B901B7D333
:10011000E2E2F1E08083CB01B901B1D38183CE016A
:1001200064E670E0ACD3CB01B901A9D38283CE01E0
:1001300068EE73E0A4D3CB01B901A1D3838380918E
:10014000200190912101019683709078992324F4E5
:1001500001978C6F9F6F01969093210180932001EE
:10016000FC01EE5DFE4F6081C0DFDF91CF9108950D
:100170001F920F920FB60F9211240BB60F92CF92CF
:10018000DF92EF92FF922F933F934F935F936F9382
:100190007F938F939F93AF93BF93EF93FF93809140
:1001A0000001882309F4CEC020E030E040E85FE39E
:1001B00060911401709115018091160190911701C1
:1001C000DCD16B017C016093140170931501809365
:1001D00016019093170120E030E040E85FE3609162
:1001E0000C0170910D0180910E0190910F01C5D10C
:1001F00060930C0170930D0180930E0190930F0199
:1002000020E030E040E85FE3609104017091050177
:100210008091060190910701B0D160930401709321
:1002200005018093060190930701209118013091F8
:10023000190140911A0150911B01C701B601F7D273
:100240001816DCF485B38F7785BB6091140170912B
:100250001501809116019091170120E030E048ECE3
:1002600052E4E5D2181664F41092140110921501AC
:10027000109216011092170103C085B3806885BBE8
:1002800060910C0170910D0180910E0190910F0110
:1002900020911001309111014091120150911301F0
:1002A000C6D21816DCF483B18B7F83B960910C0140
:1002B00070910D0180910E0190910F0120E030E0CE
:1002C00048EC52E4B4D2181664F410920C01109267
:1002D0000D0110920E0110920F0103C083B18460D2
:1002E00083B960910401709105018091060190919C
:1002F0000701209108013091090140910A015091B4
:100300000B0195D21816DCF483B1877F83B9609115
:10031000040170910501809106019091070120E090
:1003200030E048EC52E483D2181664F410920401D1
:1003300010920501109206011092070103C083B1CB
:10034000886083B980911E0190911F01DADE80914F
:1003500026019FEF980F90932601811110C0809184
:100360001E0190911F01019690931F0180931E0121
:100370008F30974221F410921F0110921E01FF91BD
:10038000EF91BF91AF919F918F917F916F915F910D
:100390004F913F912F91FF90EF90DF90CF900F9072
:1003A0000BBE0F900FBE0F901F9018954F925F924B
:1003B0006F927F928F929F92AF92BF92CF92DF9275
:1003C000EF92FF920F931F93CF93DF9300D000D053
:1003D000CDB7DEB7CC2009F43FC0E982FA820B83A7
:1003E0001C8349015A012B013C016C2D70E080E017
:1003F00090E08FD19B01AC0160E070E088EC92E46A
:1004000020D16B017C019B01AC01C301B20119D168
:10041000609318017093190180931A0190931B0146
:10042000A7019601C501B4010CD16093100170932E
:1004300011018093120190931301A7019601698124
:100440007A818B819C81FDD06093080170930901B2
:1004500080930A0190930B010F900F900F900F90D3
:10046000DF91CF911F910F91FF90EF90DF90CF9090
:10047000BF90AF909F908F907F906F905F904F90C4
:10048000089522DE25C0C1E0C60FC0931D01609112
:100490000101DFEFD60FD093010160911C0170E0E4
:1004A00080E090E036D14B015C016C2F70E080E081
:1004B00090E02FD12B013C016D2F70E080E090E0A7
:1004C00028D1C090020185017401A30192016EDF61
:1004D00060911D016F3FB9F622C06F5F60931C01F0
:1004E000C0911D01C150C0931D0170E080E090E0FB
:1004F00010D14B015C016C2F70E080E090E009D1DD
:100500002B013C016091010170E080E090E001D19D
:10051000C090020185017401A301920147DF60913F
:100520001C016F3FD1F623C0C1E0C60FC09301018B
:1005300060911C01615060931C0170E080E090E0CC
:10054000E8D02B013C0160911D0170E080E090E05B
:10055000E0D04B015C016C2F70E080E090E0D9D0DE
:10056000C090020183017201A50194011FDF609117
:1005700001016F3FC9F6ACCF5058BB27AA270ED058
:100580001CC10DD130F012D120F031F49F3F11F495
:100590001EF402C10EF4E095E7FBF8C0E92F1ED16E
:1005A00080F3BA17620773078407950718F071F490
:1005B0009EF536C10EF4E0950B2EBA2FA02D0B013F
:1005C000B90190010C01CA01A0011124FF27591B98
:1005D00099F0593F50F4503E68F11A16F040A22F9E
:1005E000232F342F4427585FF3CF4695379527950F
:1005F000A795F0405395C9F77EF41F16BA0B620B0E
:10060000730B840BBAF09150A1F0FF0FBB1F661F54
:10061000771F881FC2F70EC0BA0F621F731F841F97
:1006200048F4879577956795B795F7959E3F08F0BD
:10063000B3CF9395880F08F09927EE0F979587957C
:1006400008950CD0BAC0B2D040F0A9D030F021F457
:100650005F3F19F09BC05111E4C09EC0BFD098F31A
:100660009923C9F35523B1F3951B550BBB27AA2733
:1006700062177307840738F09F5F5F4F220F331FA5
:10068000441FAA1FA9F333D00E2E3AF0E0E830D071
:1006900091505040E695001CCAF729D0FE2F27D074
:1006A000660F771F881FBB1F261737074807AB0742
:1006B000B0E809F0BB0B802DBF01FF2793585F4FB7
:1006C0002AF09E3F510568F061C0ABC05F3FECF37C
:1006D000983EDCF3869577956795B795F7959F5F7C
:1006E000C9F7880F911D9695879597F90895E1E0D0
:1006F000660F771F881FBB1F621773078407BA072F
:1007000020F0621B730B840BBA0BEE1F88F7E09589
:100710000895E89409C097FB3EF4909580957095F4
:1007200061957F4F8F4F9F4F9923A9F0F92F96E93D
:10073000BB279395F695879577956795B795F111B2
:10074000F8CFFAF4BB0F11F460FF1BC06F5F7F4F4F
:100750008F4F9F4F16C0882311F096E911C0772361
:1007600021F09EE8872F762F05C0662371F096E86A
:10077000862F70E060E02AF09A95660F771F881F39
:10078000DAF7880F9695879597F9089597F99F67F7
:1007900080E870E060E008959FEF80EC0895002409
:1007A0000A941616170618060906089500240A94D6
:1007B00012161306140605060895092E0394000C5C
:1007C00011F4882352F0BB0F40F4BF2B11F460FFEB
:1007D00004C06F5F7F4F8F4F9F4F089557FD905814
:1007E000440F551F59F05F3F71F04795880F97FBF5
:1007F000991F61F09F3F79F08795089512161306AF
:100800001406551FF2CF4695F1DF08C016161706DD
:100810001806991FF1CF8695710561050894089512
:10082000E894BB2766277727CB0197F9089503D073
:1008300008F48FEF0895990F0008550FAA0BE0E810
:10084000FEEF16161706E807F907C0F01216130692
:10085000E407F50798F0621B730B840B950B39F4D2
:100860000A2661F0232B242B252B21F408950A2638
:1008700009F4A140A6958FEF811D811D089597FB76
:10088000072E16F4009406D077FD08D00BD007FC95
:1008900005D03EF4909581959F4F08957095619590
:1008A0007F4F0895AA1BBB1B51E107C0AA1FBB1FA6
:1008B000A617B70710F0A61BB70B881F991F5A95EC
:1008C000A9F780959095BC01CD010895F894FFCFCC
:0408D00001FFFF0025
:00000001FF
