S0160000542D426972642D50726F6A6563742E7372656308
S113000045C0000060C000005EC000005CC000008D
S11300105AC0000058C0000056C0000054C0000080
S113002052C0000050C000004EC000004CC0000090
S11300304AC0000048C0000046C0000044C00000A0
S113004097C0000040C000003EC000003CC000005B
S11300503AC0000038C0000036C0000034C00000C0
S113006032C0000030C000002EC000002CC00000D0
S11300702AC0000028C0000026C0000024C00000E0
S113008022C0000020C000001EC0000011241FBEBA
S1130090CFEFD0E1DEBFCDBF11E0A0E0B1E0E8E5F5
S11300A0F3E000E00BBF02C007900D92A030B1074F
S11300B0D9F721E0A0E0B1E001C01D92AF30B20752
S11300C0E1F7E6D047C19CCF80EF87BB81BB10929C
S11300D0640088E884BB8CE082B98FEF8ABB82E03D
S11300E083BF81E087BF78940895843048F46A30F0
S11300F038F420E1829FC0011124862B80688BBBD9
S11301000895CF93DF93EC012AE030E0B901FBD0EE
S1130110EAE0F1E08083CB01B901F5D08183CE011F
S113012064E670E0F0D0CB01B901EDD08283CE015A
S113013068EE73E0E8D0CB01B901E5D08383809108
S1130140080190910901019683709078992324F411
S113015001978C6F9F6F019690930901809308011A
S1130160FC01E65FFE4F6081C0DFDF91CF9108950F
S11301701F920F920FB60F9211240BB60F922F936A
S11301803F934F935F936F937F938F939F93AF931B
S1130190BF93EF93FF93809104018F5F80930401D9
S11301A0909102019F5F90930201909100019F5FE3
S11301B09093000190910501981750F485B38F77BF
S11301C085BB80910401853630F01092040103C090
S11301D085B3806885BB90910201809103018917E2
S11301E050F483B18B7F83B980910201853630F05E
S11301F01092020103C083B1846083B9909100011D
S113020080910101891750F483B1877F83B980916C
S11302100001853630F01092000103C083B188607C
S113022083B980910601909107016BDF80910E01E3
S11302309FEF980F90930E01811110C080910601D9
S113024090910701019690930701809306018F30E6
S1130250974221F41092070110920601FF91EF9149
S1130260BF91AF919F918F917F916F915F914F91CA
S11302703F912F910F900BBE0F900FBE0F901F90C8
S1130280189580930501609303014093010108953B
S11302901BDFC0E010E0D4E60FC01F5FD1504C2F2D
S11302A0612F8D2FEEDF2FE788E391E0215080400E
S11302B09040E1F700C00000143680F4EECFCF5F29
S11302C011504C2F612F8D2FDCDF2FE788E391E055
S11302D0215080409040E1F700C00000C43678F31C
S11302E00FC0DF5FC1504C2F612F8D2FCADF2FE766
S11302F088E391E0215080409040E1F700C0000085
S1130300D43678F3D9CF97FB072E16F4009406D091
S113031077FD08D00BD007FC05D03EF4909581956D
S11303209F4F0895709561957F4F0895AA1BBB1B3D
S113033051E107C0AA1FBB1FA617B70710F0A61BE1
S1130340B70B881F991F5A95A9F780959095BC0102
S10B0350CD010895F894FFCFDC
S9030000FC
