S0160000542D426972642D50726F6A6563742E7372656308
S113000045C0000060C000005EC000005CC000008D
S11300105AC0000058C0000056C0000054C0000080
S113002052C0000050C000004EC000004CC0000090
S11300304AC0000048C0000046C0000044C00000A0
S113004043C0000040C000003EC000003CC00000AF
S11300503AC0000038C0000036C0000034C00000C0
S113006032C0000030C000002EC000002CC00000D0
S11300702AC0000028C0000026C0000024C00000E0
S113008022C0000020C000001EC0000011241FBEBA
S1130090CFEFD0E1DEBFCDBF11E0A0E0B1E0EAE4F4
S11300A0F5E000E00BBF02C007900D92AC30B10741
S11300B0D9F721E0ACE0B1E001C01D92A932B2074A
S11300C0E1F75AD140C29CCF1F920F920FB60F9204
S11300D011240BB60F92CF92DF92EF92FF922F93DF
S11300E03F934F935F936F937F938F939F93AF93BC
S11300F0BF93EF93FF9380910C01882309F4CEC042
S113010020E030E040E85FE360911D0170911E0142
S113011080911F019091200139D16B017C01609382
S11301201D0170931E0180931F019093200120E014
S113013030E040E85FE36091150170911601809111
S113014017019091180122D1609315017093160143
S1130150809317019093180120E030E040E85FE3BA
S113016060910D0170910E0180910F019091100129
S11301700DD160930D0170930E0180930F01909344
S113018010012091210130912201409123015091CD
S11301902401C701B601AFD11816DCF485B38F77FB
S11301A085BB60911D0170911E0180911F0190918A
S11301B0200120E030E048EC52E49DD1181664F4AC
S11301C010921D0110921E0110921F011092200125
S11301D003C085B3806885BB6091150170911601D9
S11301E080911701909118012091190130911A0101
S11301F040911B0150911C017ED11816DCF483B18F
S11302008B7F83B96091150170911601809117015C
S11302109091180120E030E048EC52E46CD11816BB
S113022064F41092150110921601109217011092A5
S1130230180103C083B1846083B960910D0170918A
S11302400E0180910F0190911001209111013091C4
S1130250120140911301509114014DD11816DCF490
S113026083B1877F83B960910D0170910E018091F4
S11302700F019091100120E030E048EC52E43BD1B2
S1130280181664F410920D0110920E0110920F01D1
S11302901092100103C083B1886083B98091280152
S11302A09FEF980F90932801811110C0809126012F
S11302B090912701019690932701809326018F3016
S11302C0974221F41092270110922601FF91EF9199
S11302D0BF91AF919F918F917F916F915F914F915A
S11302E03F912F91FF90EF90DF90CF900F900BBE36
S11302F00F900FBE0F901F90189587B38F7087BB18
S113030087B3806F87BB81B38F7081BB81B3806FEC
S113031081BB109264008CE082B98FEF8ABB84B3F6
S1130320807884BB84B3886784BB8AE483BF81E01C
S113033087BF7894089538E01BC085B3807885BB67
S113034085B3832B85BB8FE097E20197F1F700C05B
S1130350000023B32F7780E008C0E82FF0E0E050DE
S1130360FF4F9081291739F08F5F8C30B0F3330F32
S1130370313418F38CE00895C0DFDDDF809325016C
S11303808A30D8F780688BBBF8CF5058BB27AA2790
S11303900ED077C068D030F06DD020F031F49F3F9C
S11303A011F41EF45DC00EF4E095E7FB53C0E92F91
S11303B079D080F3BA17620773078407950718F09A
S11303C071F49EF591C00EF4E0950B2EBA2FA02D7A
S11303D00B01B90190010C01CA01A0011124FF27EE
S11303E0591B99F0593F50F4503E68F11A16F040E9
S11303F0A22F232F342F4427585FF3CF46953795E8
S11304002795A795F0405395C9F77EF41F16BA0BAC
S1130410620B730B840BBAF09150A1F0FF0FBB1F5A
S1130420661F771F881FC2F70EC0BA0F621F731FA3
S1130430841F48F4879577956795B795F7959E3F00
S113044008F0B3CF9395880F08F09927EE0F97958E
S11304508795089597F99F6780E870E060E00895B4
S11304609FEF80EC089500240A94161617061806C8
S11304700906089500240A941216130614060506A4
S11304800895092E0394000C11F4882352F0BB0F35
S113049040F4BF2B11F460FF04C06F5F7F4F8F4F98
S11304A09F4F089557FD9058440F551F59F05F3FD3
S11304B071F04795880F97FB991F61F09F3F79F082
S11304C087950895121613061406551FF2CF469504
S11304D0F1DF08C0161617061806991FF1CF869586
S11304E07105610508940895E894BB27662777276A
S11304F0CB0197F9089503D008F48FEF0895990F6D
S11305000008550FAA0BE0E8FEEF16161706E807D9
S1130510F907C0F012161306E407F50798F0621BFA
S1130520730B840B950B39F40A2661F0232B242BCF
S1130530252B21F408950A2609F4A140A6958FEFEE
S10D0540811D811D0895F894FFCF7A
S10F054A450E0D0B161513262523464301
S9030000FC
