S0160000542D426972642D50726F6A6563742E7372656308
S113000045C0000060C000005EC000005CC000008D
S11300105AC0000058C0000056C0000054C0000080
S113002052C0000050C000004EC000004CC0000090
S11300304AC0000048C00000FBC0000044C00000EB
S1130040D0C0000040C000003EC000003CC0000022
S11300503AC0000038C0000036C0000034C00000C0
S113006032C0000030C000002EC000002CC00000D0
S11300702AC0000028C0000026C0000024C00000E0
S113008022C0000020C000001EC0000011241FBEBA
S1130090CFEFD0E1DEBFCDBF11E0A0E0B1E0E6E1FB
S11300A0F9E000E00BBF02C007900D92A630B10743
S11300B0D9F721E0A6E0B1E001C01D92AE31B2074C
S11300C0E1F730D126C49CCF82B18F7782B9E2E6C2
S11300D0F0E080818D7F8083808184608083E2E68C
S11300E0F0E080818860808385E08A95F1F70000E4
S11300F081B180789081977F908395E09A95F1F70C
S1130100000090819860908395E09A95F1F7000043
S11301109081977F908395E09A95F1F70000811183
S1130120DECF80818B7F808382B1806882B908951D
S1130130E2E6F0E08081886080838AE08A95F1F7C6
S113014000C08081877F80838AE08A95F1F700C0B0
S11301500895CF93C82FB8DFE2E6F0E080818D7F69
S1130160808380818B7F80838081877F808383B13C
S11301708F7083B983B19C2F907F892B83B9D8DF8B
S113018083B18F7083B923B130E1C39FC0011124BF
S1130190822B83B9CDDFCF91089582B1806F82B96C
S11301A0E1E6F0E080818E608083E2E6F0E0808129
S11301B08D7F808380818D7F808380E283B9B8DFE7
S11301C0B7DFB6DF88E2C5DF88E2C3DF88E2C1DFDC
S11301D082E0BFDF81E0BDDF8CE0BBDF81E0B9CF2F
S11301E008951F920F920FB60F9211240BB60F921F
S11301F02F933F934F935F936F937F938F939F932B
S1130200AF93BF93EF93FF93F3D0FF91EF91BF911F
S1130210AF919F918F917F916F915F914F913F919A
S11302202F910F900BBE0F900FBE0F901F9018953B
S11302301F920F920FB60F9211240BB60F922F93A9
S11302403F934F935F936F937F938F939F93AF935A
S1130250BF93EF93FF9380910601909107012BD1F7
S113026080910A018F5F80930A01811103C082B3D8
S1130270805882BBFF91EF91BF91AF919F918F9175
S11302807F916F915F914F913F912F910F900BBE92
S11302900F900FBE0F901F90189587B38F7087BB78
S11302A087B3806F87BB81B38F7081BB81B3806F4D
S11302B081BBE4E6F0E08081807E8083808180835E
S11302C082B1837F82B982B18C6082B984B38F7723
S11302D084BB84B3806584BB8FEF8ABB84B380788E
S11302E084BB84B3886784BB91E093BF87B7816084
S11302F087BF78949EBD87B7846087BF789408953C
S11303009DD287709927909309018093080118164C
S1130310190614F081E090E08730910514F086E02E
S113032090E00895BADF39DF2FEF40E060E08FEF0F
S11303300CD0E6DF90930701809306018FE99FE0DC
S11303400197F1F700C00000F4CFCF92DF92EF9253
S1130350FF921F93CF93DF93222309F441C0D42F3C
S1130360162FC82F622F70E080E090E047D19B01E8
S1130370AC0160E070E08FE793E4D8D06B017C01BE
S11303806C2F70E080E090E039D1A7019601CED0C7
S113039060931401709315018093160190931701D3
S11303A0612F70E080E090E029D1A7019601BED0D2
S11303B060931001709311018093120190931301C3
S11303C06D2F70E080E090E019D1A7019601AED0C6
S11303D060930C0170930D0180930E0190930F01B3
S11303E0DF91CF911F91FF90EF90DF90CF90089510
S11303F080910401882309F451C080910B018F5F1F
S113040080930B018F3F11F410920B0160910B014B
S113041070E080E090E0F4D0209114013091150157
S113042040911601509117017DD0181624F085B320
S1130430806885BB03C085B38F7785BB60910B0152
S113044070E080E090E0DCD0209110013091110147
S1130450409112015091130165D0181624F083B114
S1130460846083B903C083B18B7F83B960910B012E
S113047070E080E090E0C4D020910C0130910D0137
S113048040910E0150910F014DD0181624F083B104
S1130490886083B9089583B1877F83B908958430D0
S11304A048F46A3038F420E1829FC0011124862B7D
S11304B080688BBB0895CF93DF93EC012AE030E092
S11304C0B9014ED1EAE1F1E08083CB01B90148D111
S11304D08183CE0164E670E043D1CB01B90140D100
S11304E08283CE0168EE73E03BD1CB01B90138D1F0
S11304F083838091180190911901019683709078FB
S1130500992324F401978C6F9F6F0196909319019E
S113051080931801FC01E65EFE4F6081C0DFDF912D
S1130520CF910895A8D008F481E008950CD0DEC0DE
S1130530D6D040F0CDD030F021F45F3F19F0BFC0E9
S1130540511108C1C2C0E3D098F39923C9F35523CC
S1130550B1F3951B550BBB27AA27621773078407B2
S113056038F09F5F5F4F220F331F441FAA1FA9F368
S113057033D00E2E3AF0E0E830D091505040E6955A
S1130580001CCAF729D0FE2F27D0660F771F881FBB
S1130590BB1F261737074807AB07B0E809F0BB0BAA
S11305A0802DBF01FF2793585F4F2AF09E3F5105CE
S11305B068F085C0CFC05F3FECF3983EDCF38695CE
S11305C077956795B795F7959F5FC9F7880F911D44
S11305D09695879597F90895E1E0660F771F881F30
S11305E0BB1F621773078407BA0720F0621B730BE3
S11305F0840BBA0BEE1F88F7E0950895E89409C0C0
S113060097FB3EF490958095709561957F4F8F4F41
S11306109F4F9923A9F0F92F96E9BB279395F69557
S1130620879577956795B795F111F8CFFAF4BB0FD5
S113063011F460FF1BC06F5F7F4F8F4F9F4F16C039
S1130640882311F096E911C0772321F09EE8872FC3
S1130650762F05C0662371F096E8862F70E060E07F
S11306602AF09A95660F771F881FDAF7880F9695F8
S1130670879597F90895990F0008550FAA0BE0E89C
S1130680FEEF16161706E807F907C0F01216130650
S1130690E407F50798F0621B730B840B950B39F490
S11306A00A2661F0232B242B252B21F408950A26F6
S11306B009F4A140A6958FEF811D811D089597F936
S11306C09F6780E870E060E008959FEF80EC0895F4
S11306D000240A941616170618060906089500241D
S11306E00A9412161306140605060895092E039497
S11306F0000C11F4882352F0BB0F40F4BF2B11F40B
S113070060FF04C06F5F7F4F8F4F9F4F089557FD69
S11307109058440F551F59F05F3F71F04795880F6B
S113072097FB991F61F09F3F79F087950895121602
S113073013061406551FF2CF4695F1DF08C01616AE
S113074017061806991FF1CF86957105610508945F
S11307500895E894BB2766277727CB0197F9089576
S113076097FB072E16F4009406D077FD08D00BD023
S113077007FC05D03EF4909581959F4F08957095A0
S113078061957F4F0895AA1BBB1B51E107C0AA1FA7
S1130790BB1FA617B70710F0A61BB70B881F991F1E
S11307A05A95A9F780959095BC01CD0108958F9233
S11307B09F92AF92BF92CF92DF92EF92FF92CF932C
S11307C0DF93EC01688179818A819B8161157105D0
S11307D08105910521F464E279ED8BE597E02DE143
S11307E033EF41E050E038D049015A019B01AC019C
S11307F0A7EAB1E44DD06B017C01ACEEB4EFA501E6
S1130800940152D0DC01CB018C0D9D1DAE1DBF1D8A
S1130810B7FF03C00197A109B04888839983AA83CD
S1130820BB839F77DF91CF91FF90EF90DF90CF90C4
S1130830BF90AF909F908F900895B9CF80E091E0E2
S1130840B6CFA0E0B0E08093000190930101A093A3
S11308500201B09303010895052E97FB16F400944A
S11308600FD057FD05D024D007FC02D046F408C0B1
S113087050954095309521953F4F4F4F5F4F0895C8
S113088090958095709561957F4F8F4F9F4F0895F8
S113089031D0A59F900DB49F900DA49F800D911D04
S11308A011240895B7FFF4CFF3DF821B930B08954F
S11308B0A1E21A2EAA1BBB1BFD010DC0AA1FBB1F60
S11308C0EE1FFF1FA217B307E407F50720F0A21BD2
S11308D0B30BE40BF50B661F771F881F991F1A943F
S11308E069F760957095809590959B01AC01BD0169
S11308F0CF010895A29FB001B39FC001A39F700DC3
S1130900811D1124911DB29F700D811D1124911D13
S10909100895F894FFCFE6
S1090916010000000100D5
S9030000FC
