S0160000542D426972642D50726F6A6563742E7372656308
S113000045C0000060C000005EC000005CC000008D
S11300105AC0000058C0000056C0000054C0000080
S113002052C0000050C000004EC000004CC0000090
S11300304AC0000048C0000004C1000044C00000E1
S1130040D9C0000040C000003EC000003CC0000019
S11300503AC0000038C0000036C0000034C00000C0
S113006032C0000030C000002EC000002CC00000D0
S11300702AC0000028C0000026C0000024C00000E0
S113008022C0000020C000001EC0000011241FBEBA
S1130090CFEFD0E1DEBFCDBF11E0A0E0B1E0E4E9F5
S11300A0FCE000E00BBF02C007900D92A830B1073E
S11300B0D9F721E0A8E0B1E001C01D92AA32B2074D
S11300C0E1F77DD2E5C59CCF82B18F7782B9E2E6B4
S11300D0F0E080818D7F8083808184608083E2E68C
S11300E0F0E080818860808385E08A95F1F70000E4
S11300F081B180789081977F908395E09A95F1F70C
S1130100000090819860908395E09A95F1F7000043
S11301109081977F908395E09A95F1F70000811183
S1130120DECF80818B7F808382B1806882B908951D
S1130130E2E6F0E08081886080838AE08A95F1F7C6
S113014000C08081877F80838AE08A95F1F700C0B0
S11301500895CF93C82FB8DFE2E6F0E080818D7F69
S1130160808380818B7F80838081877F808383B13C
S11301708F7083B983B19C2F907F892B83B9D8DF8B
S113018083B18F7083B923B130E1C39FC0011124BF
S1130190822B83B9CDDFCF91089582B1806F82B96C
S11301A0E1E6F0E080818E608083E2E6F0E0808129
S11301B08D7F808380818D7F808380E283B9B8DFE7
S11301C0B7DFB6DF88E2C5DF88E2C3DF88E2C1DFDC
S11301D082E0BFDF81E0BDDF8CE0BBDF81E0B9CF2F
S11301E00895982F907F92BB20E1829FC001112433
S11301F088BB08951F920F920FB60F9211240BB66D
S11302000F922F933F934F935F936F937F938F93AB
S11302109F93AF93BF93EF93FF9328D2FF91EF91F6
S1130220BF91AF919F918F917F916F915F914F910A
S11302303F912F910F900BBE0F900FBE0F901F9008
S113024018951F920F920FB60F9211240BB60F92AE
S11302502F933F934F935F936F937F938F939F93CA
S1130260AF93BF93EF93FF93809113019091140187
S1130270E1D2FF91EF91BF91AF919F918F917F91C7
S11302806F915F914F913F912F910F900BBE0F9003
S11302900FBE0F901F90189587B38F7087BB87B3DD
S11302A0806F87BB81B38F7081BB81B3806F81BB4B
S11302B0E4E6F0E08081807E80838081808382B167
S11302C0837F82B982B18C6082B984B38F7784BB17
S11302D084B3806584BB8FEF8ABB84B3807884BB8E
S11302E084B3886784BB91E093BF87B7816087BF7D
S11302F078949EBD87B7846087BF789408950F93E0
S11303001F93CF93DF93CDB7DEB72F970FB6F89433
S1130310DEBF0FBECDBF1BC1809108018823A1F0B1
S113032010920801E0910D01F0910E01CF01880FA8
S1130330991FE80FF91F81E090E08C0F9D1FE80FD3
S1130340F91F81818150818380910D0190910E016B
S1130350FC01EE0FFF1F8E0F9F1FE1E0F0E0EC0F9A
S1130360FD1FE80FF91F8181D8D18091630080FFC0
S113037042C080910A01813009F43DC081E080933C
S11303800A0100910D0110910E0180910B019091D1
S11303900C01FED1F801EE0FFF1F0E0F1F1FE1E04D
S11303A0F0E0EC0FFD1FE00FF11F828380910D013F
S11303B090910E01FC01EE0FFF1F8E0F9F1FE1E0D5
S11303C0F0E0EC0FFD1FE80FF91F828190E090939D
S11303D00C0180930B01909314018093130181E02D
S11303E090E09093100180930F0180910401882381
S11303F011F081E0F6DE8091630081FF19C08091E5
S113040009018130A9F080910F01909110010197A9
S113041079F481E08093090182E090E090931001E7
S113042080930F0180910401882311F082E2D9DEC8
S11304308091630082FF2BC080910901813039F1E2
S113044080910F0190911001019709F581E080934B
S11304500901E0910D01F0910E01CF01880F991F60
S1130460E80FF91F81E090E08C0F9D1FE80FF91F42
S113047081818150818382E090E090931001809388
S11304800F0180910401882311F082E8AADE809193
S1130490630083FF1BC0809109018130B9F0809112
S11304A00F0190911001019789F481E08093090173
S11304B08093080182E090E09093100180930F01F3
S11304C080910401882311F082E48BDE80910F0176
S11304D090911001029731F58091110190911201D0
S11304E00196909312018093110180910D019091D6
S11304F00E01019690930E0180930D01059724F04F
S113050010920E0110920D0110920A01109209012D
S11305101092080110920C0110920B01109210011C
S113052010920F018091630084FF11C08091090132
S1130530813069F081E0809309018091040188236E
S113054011F08FEF4EDE109206011092050180919A
S1130550050190910601892B09F0DECE80910401FA
S1130560882311F080E03DDE1092140110921301F3
S113057081E090E0909306018093050110921201AE
S1130580109211011092100110920F0110920E019D
S113059010920D0110920C0110920B0110920A019D
S11305A010920901109208012F960FB6F894DEBF3D
S11305B00FBECDBFDF91CF911F910F9108956CDED7
S11305C0ECDD9DDEFECFCF92DF92EF92FF921F9380
S11305D0CF93DF93222309F441C0D42F162FC82FC1
S11305E0622F70E080E090E0C8D19B01AC0160E034
S11305F070E08FE793E459D16B017C016C2F70E0BC
S113060080E090E0BAD1A70196014FD160931E011A
S113061070931F018093200190932101612F70E05A
S113062080E090E0AAD1A70196013FD160931A011E
S113063070931B0180931C0190931D016D2F70E03A
S113064080E090E09AD1A70196012FD16093160122
S1130650709317018093180190931901DF91CF9142
S11306601F91FF90EF90DF90CF9008958091070144
S1130670882309F451C0809115018F5F809315017F
S11306808F3F11F4109215016091150170E080E024
S113069090E075D120911E0130911F0140912001FD
S11306A050912101FED0181624F085B3806885BBD3
S11306B003C085B38F7785BB6091150170E080E03E
S11306C090E05DD120911A0130911B0140911C01F1
S11306D050911D01E6D0181624F083B1846083B9CB
S11306E003C083B18B7F83B96091150170E080E012
S11306F090E045D1209116013091170140911801E5
S113070050911901CED0181624F083B1886083B9B2
S1130710089583B1877F83B908958230D1F028F496
S1130720882309F18130D1F023C0843041F060F096
S11307308530F1F42FEF40E06FEF80E044DF2FEFDE
S113074040E06FEF84E13FDF2FEF40E066E982E3B2
S11307503ADF2FEF40E062E386E935DF2FEF40E038
S113076060E08FEF30DF20E040E060E080E02BDFEE
S113077020E040E060E080E026CF08951ED2909310
S113078023018093220166E070E0A9D101960895C7
S1130790FF920F931F93CF93DF93EC01F12C31C0A1
S11307A0A801440F551F9801220F331F220F331F36
S11307B0220F331F240F351F820F931F19C00817F0
S11307C0190774F49C01220F331F880F991F880F97
S11307D0991F880F991F820F931F800F911F08C0C4
S11307E02BE0209FC001219F900D1124FF24F3943E
S11307F08531910569F021E0F21651F08C179D07BF
S11308003CF4BCDF8C01BADF801791074CF2D7CFE0
S1130810DF91CF911F910F91FF900895843048F498
S11308206A3038F420E1829FC0011124862B80684D
S11308308BBB0895CF93DF93EC012AE030E0B9013C
S11308404ED1E6E2F1E08083CB01B90148D1818346
S1130850CE0164E670E043D1CB01B90140D182837B
S1130860CE0168EE73E03BD1CB01B90138D183836B
S113087080912401909125010196837090789923A9
S113088024F401978C6F9F6F0196909325018093B8
S11308902401FC01EA5DFE4F6081C0DFDF91CF914E
S11308A00895A8D008F481E008950CD0DEC0D6D015
S11308B040F0CDD030F021F45F3F19F0BFC05111AA
S11308C008C1C2C0E3D098F39923C9F35523B1F307
S11308D0951B550BBB27AA2762177307840738F0AB
S11308E09F5F5F4F220F331F441FAA1FA9F333D00A
S11308F00E2E3AF0E0E830D091505040E695001CBE
S1130900CAF729D0FE2F27D0660F771F881FBB1F79
S1130910261737074807AB07B0E809F0BB0B802D53
S1130920BF01FF2793585F4F2AF09E3F510568F09F
S113093085C0CFC05F3FECF3983EDCF38695779596
S11309406795B795F7959F5FC9F7880F911D9695A1
S1130950879597F90895E1E0660F771F881FBB1FFD
S1130960621773078407BA0720F0621B730B840BAA
S1130970BA0BEE1F88F7E0950895E89409C097FB39
S11309803EF490958095709561957F4F8F4F9F4F62
S11309909923A9F0F92F96E9BB279395F6958795A6
S11309A077956795B795F111F8CFFAF4BB0F11F469
S11309B060FF1BC06F5F7F4F8F4F9F4F16C0882310
S11309C011F096E911C0772321F09EE8872F762F46
S11309D005C0662371F096E8862F70E060E02AF087
S11309E09A95660F771F881FDAF7880F9695879573
S11309F097F90895990F0008550FAA0BE0E8FEEF48
S1130A0016161706E807F907C0F012161306E407CE
S1130A10F50798F0621B730B840B950B39F40A26C7
S1130A2061F0232B242B252B21F408950A2609F4A5
S1130A30A140A6958FEF811D811D089597F99F67A9
S1130A4080E870E060E008959FEF80EC0895002452
S1130A500A941616170618060906089500240A941F
S1130A6012161306140605060895092E0394000CA5
S1130A7011F4882352F0BB0F40F4BF2B11F460FF34
S1130A8004C06F5F7F4F8F4F9F4F089557FD90585D
S1130A90440F551F59F05F3F71F04795880F97FB3E
S1130AA0991F61F09F3F79F08795089512161306F8
S1130AB01406551FF2CF4695F1DF08C01616170627
S1130AC01806991FF1CF869571056105089408955C
S1130AD0E894BB2766277727CB0197F9089597FBFE
S1130AE0072E16F4009406D077FD08D00BD007FC2F
S1130AF005D03EF4909581959F4F0895709561952A
S1130B007F4F0895AA1BBB1B51E107C0AA1FBB1F3F
S1130B10A617B70710F0A61BB70B881F991F5A9585
S1130B20A9F780959095BC01CD0108958F929F926D
S1130B30AF92BF92CF92DF92EF92FF92CF93DF9367
S1130B40EC01688179818A819B8161157105810538
S1130B50910521F464E279ED8BE597E02DE133EF23
S1130B6041E050E038D049015A019B01AC01A7EAA9
S1130B70B1E44DD06B017C01ACEEB4EFA50194015E
S1130B8052D0DC01CB018C0D9D1DAE1DBF1DB7FFE6
S1130B9003C00197A109B04888839983AA83BB83C2
S1130BA09F77DF91CF91FF90EF90DF90CF90BF9030
S1130BB0AF909F908F900895B9CF80E091E0B6CF29
S1130BC0A0E0B0E08093000190930101A0930201A2
S1130BD0B09303010895052E97FB16F400940FD0EB
S1130BE057FD05D024D007FC02D046F408C0509528
S1130BF04095309521953F4F4F4F5F4F0895909505
S1130C008095709561957F4F8F4F9F4F089531D098
S1130C10A59F900DB49F900DA49F800D911D11244C
S1130C200895B7FFF4CFF3DF821B930B0895A1E27D
S1130C301A2EAA1BBB1BFD010DC0AA1FBB1FEE1F52
S1130C40FF1FA217B307E407F50720F0A21BB30B9D
S1130C50E40BF50B661F771F881F991F1A9469F719
S1130C6060957095809590959B01AC01BD01CF0175
S1130C700895A29FB001B39FC001A39F700D811D71
S1130C801124911DB29F700D811D1124911D089591
S1070C90F894FFCF02
S10B0C94010000000101000150
S9030000FC
